:020000020000FC
:100000000C9431000C9488000C949B000C94A40078
:10005C000C94AF00189501E20EBF0FEF0DBF0FEF20
:10006C0000BB01B907B9002701BB02B908B90027C9
:10007C000AB90BB90AE2009369000DB307600DBB16
:10008C000027222758E392D0ABD0C6D058E38ED0AD
:10009C00A7D0B9D058E38AD0A3D058E387D0A0D04A
:1000AC0058E084D09DD051E081D09AD056E07ED0DB
:1000BC0097D05EE07BD094D058E178D091D001E01D
:1000CC00602F0027009302020093030202E005BD9B
:1000DC0001E000936E0011270F9308E000930A01D2
:1000EC000FEF0093280100930902002700932901C8
:1000FC0001E00093210101E8009320010F91789415
:10010C000C948600213011F493D0222721E00F9318
:10011C000FB70F930FEF08B9009109020F3F09F0C9
:10012C000F390F910FBF0F9118950F930FB70F93B6
:10013C000FEF08B90F910FBF0F9118950F937F9385
:10014C0004E01395101711F4019611277F910F916C
:10015C0018950FB70F937F939F938F938091020203
:10016C009091030201968D3003E09007A9F48F91D2
:10017C009F917AE0879F402D512D979F500D842F92
:10018C00952F4427552759D0882799270027009366
:10019C0002020093030206C08093020290930302B2
:1001AC008F919F917F910F910FBF189551BB0000BC
:1001BC00169A0000000000001698000000000000D5
:1001CC00089561BB179A000000000000169A000009
:1001DC000000000016980000000000001798089519
:1001EC005F93552750BB51BB159A0000169A00001F
:1001FC00000000005FB1169857FDF7CF15985FEF20
:10020C0050BB5F9108958F939F939FE08CE901976A
:10021C00F1F79F918F910895F6DFF5DFF4DFF3DFAF
:10022C00F2DF0895F9DFF8DFF7DFF6DFF5DF089589
:10023C00F9DFF8DFF7DFF6DF08958F939F930F93C5
:10024C007F9360E80027009304020093050200935B
:10025C0006020093070200930802803177E29707A9
:10026C0068F0803177E2970748F08051974200910F
:10027C0004020395009304020C94370100910402CC
:10028C00005D562F93DFACDF6395602F9ADFA8DFFC
:10029C00883E73E0970768F0883E73E0970748F054
:1002AC00885E9340009105020395009305020C941F
:1002BC00520100910502005D562F78DF91DF6395A6
:1002CC00602F7FDF8DDF843670E0970768F084360F
:1002DC0070E0970748F08456904000910602039511
:1002EC00009306020C946D0100910602005D562FDE
:1002FC005DDF76DF6395602F64DF72DF8A3070E03C
:10030C00970768F08A3070E0970748F08A50904061
:10031C00009107020395009307020C948801009149
:10032C000702005D562F42DF5BDF6395602F49DFCC
:10033C0057DF082F005D562F39DF52DF6395602F92
:0E034C0040DF4EDF7F910F919F918F910895BA
:00000001FF
