:020000020000FC
:100000000C9473000C9472000C9472000C947200A7
:100010000C9472000C9472000C9472000C94720098
:100020000C9472000C9472000C9472000C94720088
:100030000C9472000C9472000C9472000C94720078
:100040000C9472000C9472000C9472000C94720068
:100050000C9472000C9472000C9472000C94720058
:100060000C9472000C9472000C9472000C94720048
:100070000C9472000C9472000C9472000C94720038
:100080000C9472000C9472000C9472000C94720028
:1000E40018950FEF0DBF01E20EBF0FEF00BB01B972
:1000F400002701BB02B968E31BD12AD143D168E3CD
:1001040017D126D136D168E313D122D168E310D1B7
:100114001FD168E00DD11CD161E00AD119D166E08C
:1001240007D116D16EE004D113D100EF00930A0178
:10013400112733274FEE552740930B010FEF0A95F4
:10014400F1F7009109010F700F3061F041E077275A
:10015400802F842319F40DD00C949C007395440FC4
:100164000C94AA00533031F30894441F53950C9413
:100174009E005330B1F07330E9F0703021F07130EB
:1001840031F0723041F001E0050F0C94E10004E01D
:10019400050F0C94E10007E0050F0C94E1000C94AA
:1001A400E10001E4070F013411F00C9496016AE5B3
:1001B4000C949301503001F00C94960100E3EED0BE
:1001C400EDD0602F103021F411E0262F0C9424017F
:1001D4000C9429012130B1F560E20C949301213093
:1001E40031F0223039F0233041F00C94240161E4E1
:1001F4000C94930162E40C94930163E40C949301D2
:10020400213031F0223039F0233041F00C942401B4
:1002140064E40C94930165E40C94930166E40C94F7
:100224009301213031F0223039F0233041F00C9425
:10023400240167E40C94930168E40C94930169E449
:100244000C949301A5D0A4D0A3D0A8D0089510E015
:10025400613001F2623019F2633091F2643009F3D3
:100264006530D9F00C944701213031F0223039F057
:10027400233041F00C94240167E50C94930168E564
:100284000C94930169E50C9493016630B9F06730DE
:1002940031F16830A9F1693039F3213031F022307D
:1002A40039F0233041F00C9424016AE40C94930156
:1002B4006BE40C9493016CE40C949301213031F0C1
:1002C400223039F0233041F00C9424016DE40C9475
:1002D40093016EE40C9493016FE40C949301213028
:1002E40031F0223039F0233041F00C94240160E5E0
:1002F4000C94930162E50C94930163E50C949301CF
:10030400213031F0223039F0233041F00C942401B3
:1003140064E50C94930165E50C94930166E50C94F3
:1003240093010DD015D08ECF6DE309D011D08ACFB3
:1003340061BB1FD0169A1DD016981BD0089561BBBF
:10034400179A17D0169A15D0169813D0179808959F
:100354006F93662760BB61BB159A0BD0169A09D0C0
:100364006FB1169867FDF9CF15986FEF60BB6F9169
:1003740008958F939F939FE08CE90197F1F79F91E4
:100384008F910895F6DFF5DFF4DFF3DFF2DF0895F0
:10039400F9DFF8DFF7DFF6DFF5DF0895F9DFF8DFDF
:0603A400F7DFF6DF08950B
:00000001FF
