:020000020000FC
:100000000C9473000C94DC000C9407010C943201E6
:100010000C9472000C9472000C9472000C94720098
:100020000C9472000C9472000C9472000C94720088
:100030000C9472000C9472000C9472000C94720078
:100040000C9472000C9472000C9472000C94720068
:100050000C9426010C9472000C9472000C943901DB
:100060000C9472000C9472000C9472000C94720048
:100070000C9472000C9472000C9472000C94720038
:100080000C9472000C9472000C9472000C94720028
:1000E40018950FEF0DBF01E20EBF6FEF67B90FEF69
:1000F40000BB01B9002701BB02B900270AB960E2BD
:100104006093690064E06DBB662760930C026091A4
:10011400690062606860609369006DB361606260E9
:100124006DBB66276093800064E06093810008E300
:100134000ED11DD136D108E30AD119D129D108E352
:1001440006D115D108E303D112D108E000D10FD1B3
:1001540001E0FDD00CD106E0FAD009D10EE0F7D0D1
:1001640006D160E8962F11272227662760930A029A
:1001740060930B02609308026093090262E065BD1C
:1001840061E060936E006FEF6DB960E06093990079
:1001940060E06093980062E36093000266276093D6
:1001A400010261E06093910063EA609390007894A7
:1001B4000C94DA006F937F9360910C02613011F11B
:1001C4006091000260396091010271E0670770F488
:1001D4006091000275E0670F609300026091010274
:1001E40070E0671F609301020C94FE0060E9609365
:1001F400000261E06093010261E060930C0261E03F
:1002040060936F007F916F9118956F9360910C02CA
:100214006130C1F06091000260306091010270E0D1
:10022400670751F06091000265506093000260918D
:10023400010260406093010261E060930C0261E09E
:1002440060936F006F9118956F937894A1D0F89490
:10025400662760930C0260E060936F006F911895BD
:100264006F9361E0160F60E0261F6F9118956FB7CA
:100274006F937F939F938F9380910A0290910B02C7
:10028400019682346FE0960709F057C090E82595EF
:10029400179501E05CD06BD090D01F932F932091E1
:1002A40099001091980098E888D02F911F9160913F
:1002B400000270910102161B270B6FB76F9390EB2E
:1002C4007CD03AE01A308AE028078AE0380F6F9130
:1002D4006FBFE1F078F468E268B9609198007091BA
:1002E4009900630F8827781F709399006093980092
:1002F4000C9488016FEF68B960919800631B70914A
:1003040099007040709399006093980010910002D6
:100314002091010298EA51D0112722276627609381
:100324000A0260930B0280910802909109020196DF
:10033400809308029093090204C080930A02909368
:100344000B028F919F917F916F916FBF189501BBA5
:100354001FD0169A1DD016981BD0089501BB179A6A
:1003640017D0169A15D0169813D0179808950F938E
:10037400002700BB01BB159A0BD0169A09D00FB108
:10038400169807FDF9CF15980FEF00BB0F9108954C
:100394008F939F939FE08CE90197F1F79F918F9141
:1003A4000895F6DFF5DFF4DFF3DFF2DF0895F9DF18
:1003B400F8DFF7DFF6DFF5DF08952F931F936F93D0
:1003C40066276093020260930302609304026093C1
:1003D40005026093060260930702612F603167E2B1
:1003E400260728F1612F603167E2260768F0612F44
:1003F4006051162F622F6742262F60910302639586
:10040400609303020C94F40160910302603079F06C
:100414006091020261E06093020260910302605DF8
:10042400092F95DFA4DF9395062F98DFA0DF612FB6
:10043400683E63E0260738F1612F683E63E02607D3
:1004440068F0612F685E162F622F6340262F60913B
:1004540004026395609304020C941E0260910402EA
:100464006030E1F06091020261E060930202609109
:100474000402605D092F6BDF7ADF9395062F6EDF30
:1004840076DF0C94500260910202603039F0092F3B
:100494005EDF6DDF939500E361DF69DF612F643612
:1004A40060E0260738F1612F643660E0260768F0C3
:1004B400612F6456162F622F6040262F609105022B
:1004C4006395609305020C945502609105026030B7
:1004D400E1F06091020261E0609302026091050222
:1004E400605D092F34DF43DF9395062F37DF3FDF4D
:1004F4000C94870260910202603039F0092F27DFE3
:1005040036DF939500E32ADF32DF612F6A3000F192
:10051400612F6A3068F0612F6A50162F622F604095
:10052400262F609106026395609306020C948A025A
:10053400609106026030B9F060910602605D092F97
:1005440006DF15DF9395062F09DF11DF0C94B50242
:1005540060910202603039F0092FF9DE08DF9395CB
:1005640000E3FCDE04DF612F605D092FF0DEFFDEB7
:100574009395062FF3DEFBDE6F911F912F91089563
:00000001FF
