:020000020000FC
:040000000C947200EA
:1000E4000FEF0DBF01E20EBF00EF00930A010FEF07
:1000F40007B908B90FEF00BB01B9002701BB02B96A
:1001040058E369D082D09DD058E365D07ED090D09A
:1001140058E361D07AD058E35ED077D058E05BD012
:1001240074D051E058D071D056E055D06ED05EE016
:1001340052D06BD058E14FD068D03FEE2227309395
:100144000B010FEF0A95F1F7009109010F700F30C1
:1001540061F031E01127402F432319F40DD00C94A2
:100164009F001395330F0C94AD00233031F30894A2
:10017400331F23950C94A1002330B1F01330C1F048
:10018400103021F0113031F0123041F001E3020F50
:100194000C94E50004E3020F0C94E50007E3020F5E
:1001A4000C94E5000C94E50001E4010F0C94E500C7
:1001B400203029F0213031F003E20C94E5000AE20A
:1001C4000C94E50000E3602F11D01FD040D03FD045
:1001D4003ED043D0089551BB0000169A00000000A1
:1001E40000001698000000000000089561BB179AF3
:1001F400000000000000169A00000000000016989D
:10020400000000000000179808955F93552750BB25
:1002140051BB159A0000169A0000000000005FB15F
:10022400169857FDF7CF15985FEF50BB5F9108956F
:100234008F939F939FE08CE90197F1F79F918F91A2
:100244000895F6DFF5DFF4DFF3DFF2DF0895F9DF79
:10025400F8DFF7DFF6DFF5DF0895F9DFF8DFF7DF22
:04026400F6DF089524
:00000001FF
