:020000020000FC
:040000000C947200EA
:1000E4000FEF0DBF01E20EBF00EF00930A010FEF07
:1000F40007B908B90FEF00BB01B9002701BB02B96A
:10010400772758E36CD085D0A7D058E368D081D046
:100114009AD058E364D07DD058E361D07AD058E0C7
:100124005ED077D051E05BD074D056E058D071D017
:100134005EE055D06ED058E152D06BD03FEE22270E
:1001440030930B010FEF0A95F1F7009109010F703D
:100154000F3061F031E01127402F432319F40DD003
:100164000C94A0001395330F0C94AE00233031F39C
:100174000894331F23950C94A2002330B1F013305C
:10018400C1F0103021F0113031F0123041F001E3B0
:10019400020F0C94E60004E3020F0C94E60007E35C
:1001A400020F0C94E6000C94E60001E4010F0C9499
:1001B400E600203029F0213031F003E20C94E6000F
:1001C4000AE20C94E60000E373957131A9F1602F03
:1001D40011D01FD047D046D045D04AD0089551BB46
:1001E4000000169A000000000000169800000000AD
:1001F4000000089561BB179A000000000000169AE1
:10020400000000000000169800000000000017988D
:1002140008955F93552750BB51BB159A0000169A59
:100224000000000000005FB1169857FDF7CF159845
:100234005FEF50BB5F91089551E0D1DFEADF75E5D0
:1002440078B97727C1CF8F939F939FE08CE901976B
:10025400F1F79F918F910895F6DFF5DFF4DFF3DF77
:10026400F2DF0895F9DFF8DFF7DFF6DFF5DF089551
:0A027400F9DFF8DFF7DFF6DF089589
:00000001FF
