:020000020000FC
:100000000C9433000C9487000C948F000C942B01FB
:10005C000C9497000C94320018950FEF0DBF01E231
:10006C000EBF0FEF00BB01B9002701BB02B9C1E005
:10007C00D2E0002709930883C3E0D2E0002709935C
:10008C000883112733272227552708E3E6D0F5D01C
:10009C000ED108E3E2D0F1D001D108E3DED0EDD0EF
:1000AC0008E3DBD0EAD008E0D8D0E7D001E0D5D027
:1000BC00E4D006E0D2D0E1D00EE0CFD0DED000C04C
:1000CC006627772700E10DB9002700939A000027D7
:1000DC0000939B000AE2009369000DB307600DBB0F
:1000EC0001E20093900002E000939100002704BD10
:1000FC0002E005BD01E000936E006093000278946D
:10010C00FFCF403009F0189541E0703009F0745180
:10011C001895403009F0189541E0743609F07C5E72
:10012C0018950FB70F93DF93CF939F938F93809175
:10013C000102909102020196883908E0900729F09B
:10014C00809301029093020206C0C1E0D2E0002726
:10015C00099308834427809103029091040201962D
:10016C00983002EA8007F1F4703021F4662760932E
:10017C009A0011C0171779F060919A00171730F494
:10018C006F3F49F06D5F60939A0005C0603019F0C5
:10019C00635060939A00C3E0D2E000270993088370
:1001AC000CD004C080930302909304028F919F9112
:1001BC00CF91DF910F910FBF189501E04ED05DD01C
:1001CC0000E84BD05AD0172F09D008EA46D055D0AA
:1001DC0003E0509F102D552701D008951F9314361E
:1001EC0090F41A30E0F400910002222720930002D0
:1001FC00013019F400E338D040D0105D012F34D019
:10020C003CD01F91089501E00093000234E61A954A
:10021C003A953030E1F72395143668F0E0CF00279B
:10022C00009300023AE01A953A953030E1F72395A5
:10023C001A3008F0D4CF205D022F16D01ED0222702
:10024C00CECF539588270C9430010FB70F9383951D
:10025C008430B9F30F910FBF189501BB1FD0169ABC
:10026C001DD016981BD0089501BB179A17D0169A5B
:10027C0015D0169813D0179808950F93002700BB2C
:10028C0001BB159A0BD0169A09D00FB1169807FD21
:10029C00F9CF15980FEF00BB0F9108958F939F9393
:1002AC009FE08CE90197F1F79F918F910895F6DF0C
:0A02BC00F5DFF4DFF3DFF2DF089551
:00000001FF
