:020000020000FC
:100000000C9473000C9472000C9472000C94B10068
:100010000C9472000C9472000C9472000C94720098
:100020000C9472000C9472000C9472000C94720088
:100030000C9472000C9472000C9472000C94720078
:100040000C9472000C9472000C9472000C94720068
:100050000C9472000C9472000C9472000C94BC000E
:100060000C9472000C9472000C9472000C94720048
:100070000C9472000C9472000C9472000C94720038
:100080000C9472000C9472000C9472000C94720028
:1000E400189501E20EBF0FEF0DBF0FEF00BB01B972
:1000F400002701BB02B900270AB900E20093690096
:1001040004E00DBB58E363D07CD097D058E35FD0B4
:1001140078D08AD058E35BD074D058E358D071D0EB
:1001240058E055D06ED051E052D06BD056E04FD04D
:1001340068D05EE04CD065D058E149D062D001E08F
:10014400602F0027009302020093030202E005BD22
:1001540001E000936E00112778940C94AF000F9384
:100164007F9304E01395101711F4019611277F91E2
:100174000F9118950FB70F937F939F938F9380914F
:1001840002029091030201968D3003E09007A9F4D6
:100194008F919F917AE0879F402D512D979F500D0D
:1001A400842F952F4427552759D08827992700272E
:1001B400009302020093030206C08093020290930C
:1001C40003028F919F917F910F910FBF189551BB9F
:1001D4000000169A000000000000169800000000BD
:1001E4000000089561BB179A000000000000169AF1
:1001F400000000000000169800000000000017989E
:1002040008955F93552750BB51BB159A0000169A69
:100214000000000000005FB1169857FDF7CF159855
:100224005FEF50BB5F9108958F939F939FE08CE99C
:100234000197F1F79F918F910895F6DFF5DFF4DFD1
:10024400F3DFF2DF0895F9DFF8DFF7DFF6DFF5DF3C
:100254000895F9DFF8DFF7DFF6DF08958F939F93B2
:100264000F937F9360E80027009304020093050234
:10027400009306020093070200930802803177E29C
:100284009707B8F0803177E2970748F0805197429A
:10029400009104020395009304020C94440100911C
:1002A4000402005D562F93DFACDF6395602F9ADF65
:1002B400A8DF883E73E09707B8F0883E73E097079D
:1002C40048F0885E9340009105020395009305026F
:1002D4000C945F0100910502005D562F78DF91DFD9
:1002E4006395602F7FDF8DDF843670E09707B8F069
:1002F400843670E0970748F08456904000910602D7
:100304000395009306020C947A0100910602005DA5
:10031400562F5DDF76DF6395602F64DF72DF8A30EE
:1003240070E09707B8F08A3070E0970748F08A5079
:100334009040009107020395009307020C949501E5
:1003440000910702005D562F42DF5BDF6395602F4B
:1003540049DF57DF082F005D562F39DF52DF6395E1
:10036400602F40DF4EDF7F910F919F918F91089511
:00000001FF
