:020000020000FC
:040000000C9430002C
:10005C000C94580001E20EBF0FEF0DBF332722277F
:10006C0011270FEF00BB01B9002701BB02B908E350
:10007C006DD086D0A1D008E369D082D094D008E3AB
:10008C0065D07ED008E362D07BD008E05FD078D01A
:10009C0001E05CD075D006E059D072D00CE056D09F
:1000AC006FD046C00F930FB70F93DF93CF939F93EF
:1000BC008F938091020290910302019684380EE195
:1000CC00900749F523952A30F1F01630F9F070E3DA
:1000DC0002E03CD055D0370F432F43D051D04AE3E8
:1000EC0040D04ED0170F412F3CD04AD0270F422F73
:1000FC0038D046D0371B171B271BC2E0D2E0002795
:10010C00099308830DC022271395DFCF11272227CF
:10011C0033950027DCCF809302029093030200C03A
:10012C008F919F91CF91DF910F910FBF0F911895E8
:10013C00C2E0D2E000270993088300E004BD02E08E
:10014C0005BD01E000936E007894FFCF01BB000069
:10015C00169A000000000000169800000000000035
:10016C00089541BB179A000000000000169A000089
:10017C000000000016980000000000001798089579
:10018C000F93002700BB01BB159A0000169A0000C4
:10019C00000000000FB1169807FDF7CF15980FEF70
:1001AC0000BB0F9108958F939F939FE08CE901976B
:1001BC00F1F79F918F910895F6DFF5DFF4DFF3DF10
:0401CC00F2DF0895C1
:00000001FF
