:020000020000FC
:100000000C948E000C948D000C948D000C948D003B
:100010000C948D000C948D000C948D000C948D002C
:100020000C948D000C948D000C948D000C948D001C
:100030000C948D000C948D000C948D000C948D000C
:100040000C948D000C948D000C948D000C948D00FC
:100050000C948D000C948D000C948D000C948D00EC
:100060000C948D000C948D000C948D000C948D00DC
:100070000C948D000C948D000C948D000C948D00CC
:100080000C948D000C948D000C948D000C948D00BC
:1000E400456E74657220746865206E756D62657204
:1000F4006F662073746174696F6E733A2000476988
:10010400762053746E204E616D653A20496E707589
:100114007420312D390018950FEF0DBF01E20EBF89
:1001240000EF00930A010FEF00BB01B9002701BBE8
:1001340002B958E346D25FD27AD258E342D25BD2B4
:100144006DD258E33ED257D258E33BD254D258E052
:1001540038D251D251E035D24ED256E032D24BD2BF
:100164005EE02FD248D251E02CD245D266E434D29C
:1001740042D265E531D23FD263E42ED23CD26BE465
:100184002BD239D260E228D236D262E525D233D2DC
:1001940065E422D230D263E51FD22DD265E41CD2AD
:1001A4002AD264E519D227D261E216D224D20C9461
:1001B400DB001FD09DD141D046D245D244D243D298
:1001C40042D241D240D23FD23ED23DD23CD23BD2A7
:1001D4003AD239D238D237D251E0F3D10CD251E0ED
:1001E400F0D109D20B30009300020C9438010C9426
:1001F400F9000F931F93EF93FF93E4EEF0E01127C0
:1002040051E0DFD1F8D151E0DCD1F5D10591602F77
:10021400E3D1F1D113951031C8F3112758EAD1D1A4
:10022400EAD10591602FD8D1E6D113951C30C8F3DB
:10023400FF91EF911F910F9108950F931F93EF93E7
:10024400FF93E2E0F1E0112751E0BBD1D4D151E0BA
:10025400B8D1D1D10591602FBFD1CDD113951C3028
:10026400C8F3FF91EF911F910F9108950F921F9280
:100274002F923F925F926F927F928F929F92AF9252
:10028400BF92CF92DF92EF92FF920F931F932F931F
:100294003F934F935F936F937F938F939F93AF930A
:1002A400BF93CF93DF93EF93FF930FB70F932FEE8B
:1002B400332720930B010FEF0A95F1F70091090101
:1002C4000F700F3061F021E04427102F122319F42E
:1002D4000DD00C9438014395220F0C9467013330F0
:1002E40029F20894221F33950C945B013330B1F04A
:1002F4004330E9F0403021F0413031F0423041F0F8
:1003040001E0030F0C949E0104E0030F0C949E0182
:1003140007E0030F0C949E010C949E0101E4040F6A
:10032400013411F00C9453026AE50C9450023030FD
:1003340001F00C94530200E386D185D1602F803004
:1003440021F481E0562F0C94E1010C94E601513024
:10035400B1F560E20C945002513031F0523039F072
:10036400533041F00C94E10161E40C94500262E4D6
:100374000C94500263E40C945002513031F052302A
:1003840039F0533041F00C94E10164E40C945002D0
:1003940065E40C94500266E40C945002513031F040
:1003A400523039F0533041F00C94E10167E40C947D
:1003B400500268E40C94500269E40C9450023DD15C
:1003C4003CD13BD140D1089580E0613001F26230EC
:1003D40019F2633091F2643009F36530D9F00C946A
:1003E4000402513031F0523039F0533041F00C9462
:1003F400E10167E50C94500268E50C94500269E54C
:100404000C9450026630B9F0673031F16830A9F1CC
:10041400693039F3513031F0523039F0533041F012
:100424000C94E1016AE40C9450026BE40C945002C5
:100434006CE40C945002513031F0523039F05330A6
:1004440041F00C94E1016DE40C9450026EE40C94C0
:1004540050026FE40C945002513031F0523039F0B4
:10046400533041F00C94E10160E50C94500262E5D4
:100474000C94500263E50C945002513031F0523028
:1004840039F0533041F00C94E10164E50C945002CE
:1004940065E50C94500266E50C9450029DD0ABD0F7
:1004A4008ECF6DE399D0A7D00F910FBFFF91EF913D
:1004B400DF91CF91BF91AF919F918F917F916F9178
:1004C4005F914F913F912F911F910F91FF90EF906A
:1004D400DF90CF90BF90AF909F908F907F906F9060
:1004E4005F904F903F902F901F900F900C94F900C5
:1004F400CF93DF93CAE7D2E055272FEE3327442763
:100504000027112720930B010FEF0A95F1F70091B3
:1005140009010F700F3061F021E04427102F1223DE
:1005240019F40DD00C947F024395220F0C94900281
:10053400333019F30894221F33950C94840233301A
:10054400E1F2433091F0403021F0413031F042305B
:1005540041F001E3030F0C94C00204E3030F0C9475
:10056400C00207E3030F0C94C002303081F0323034
:1005740019F000E30C94C0020C947F02602F2CD07D
:100584003AD061D060D0099353955230A8F36AE20F
:1005940023D031D00F931F932F932AE0CAE7D2E0E0
:1005A40019911053523019F4129F1991010E4BD026
:1005B4004AD049D0102F2F911F910F91DF91CF91E5
:1005C400089551BB0000169A000000000000169820
:1005D400000000000000089561BB179A00000000AD
:1005E4000000169A000000000000169800000000A9
:1005F4000000179808955F93552750BB51BB159A77
:100604000000169A0000000000005FB1169857FD24
:10061400F7CF15985FEF50BB5F9108958F939F9329
:100624009FE08CE90197F1F79F918F910895F6DF90
:10063400F5DFF4DFF3DFF2DF0895F9DFF8DFF7DF4A
:10064400F6DFF5DF0895F9DFF8DFF7DFF6DF089569
:00000001FF
