:020000020000FC
:100000000C9473000C9472000C9472000C94B30066
:100010000C9472000C9472000C9472000C94720098
:100020000C9472000C9472000C9472000C94720088
:100030000C9472000C9472000C9472000C94720078
:100040000C9472000C94BA000C9472000C94720020
:100050000C9472000C9472000C9472000C94C10009
:100060000C9472000C9472000C9472000C94720048
:100070000C9472000C9472000C9472000C94720038
:100080000C9472000C9472000C9472000C94720028
:1000E40018950FEF0DBF01E20EBF0FEF00BB01B972
:1000F400002701BB02B900270AB960E260936900D6
:1001040064E06DBB08E369D078D091D008E365D092
:1001140074D084D008E361D070D008E35ED06DD091
:1001240008E05BD06AD001E058D067D006E055D033
:1001340064D00EE052D061D060E8862F11272227C8
:10014400662760930A0260930B026093080260932F
:10015400090262E065BD61E060936E0078940C94DE
:10016400B1006F9361E0160F60E0261F6F91189540
:100174006F9380E868D0112722276F9118956FB785
:100184006F939F938F9380910A0290910B02019633
:1001940082346FE09607C1F480E82595179501E055
:1001A4001CD02BD050D011272227662760930A0237
:1001B40060930B028091080290910902019680934A
:1001C40008029093090204C080930A0290930B02E0
:1001D4008F919F916F916FBF189501BB1FD0169A95
:1001E4001DD016981BD0089501BB179A17D0169AE4
:1001F40015D0169813D0179808950F93002700BBB5
:1002040001BB159A0BD0169A09D00FB1169807FDA9
:10021400F9CF15980FEF00BB0F9108958F939F931B
:100224009FE08CE90197F1F79F918F910895F6DF94
:10023400F5DFF4DFF3DFF2DF0895F9DFF8DFF7DF4E
:10024400F6DFF5DF08952F931F936F93662760936E
:1002540002026093030260930402609305026093B8
:10026400060260930702612F603167E2260728F1D6
:10027400612F603167E2260768F0612F6051162F05
:10028400622F6742262F60910302639560930302F5
:100294000C943A0160910302603079F0609102029B
:1002A40061E06093020260910302605D082F95DFB4
:1002B400A4DF8395062F98DFA0DF612F683E63E0FB
:1002C400260738F1612F683E63E0260768F0612F46
:1002D400685E162F622F6340262F60910402639597
:1002E400609304020C946401609104026030E1F0B4
:1002F4006091020261E06093020260910402605D19
:10030400082F6BDF7ADF8395062F6EDF76DF0C9480
:10031400960160910202603039F0082F5EDF6DDFD4
:10032400839500E361DF69DF612F643660E02607AF
:1003340038F1612F643660E0260768F0612F645657
:10034400162F622F6040262F6091050263956093FB
:1003540005020C949B01609105026030E1F060910C
:10036400020261E06093020260910502605D082F61
:1003740034DF43DF8395062F37DF3FDF0C94CD0155
:1003840060910202603039F0082F27DF36DF839551
:1003940000E32ADF32DF612F6A3000F1612F6A3017
:1003A40068F0612F6A50162F622F6040262F6091EB
:1003B40006026395609306020C94D00160910602D4
:1003C4006030B9F060910602605D082F06DF15DF2A
:1003D4008395062F09DF11DF0C94FB016091020263
:1003E400603039F0082FF9DE08DF839500E3FCDE86
:1003F40004DF612F605D082FF0DEFFDE8395062F9A
:0C040400F3DEFBDE6F911F912F91089535
:00000001FF
